:020000040000FA
:200000000C946C010C9494010C9494010C9494010C9494010C9494010C9494010C94940160
:200020000C9494010C9494010C94120F0C94DE0D0C9494010C9494010C9494010C94940136
:200040000C9494010C9494010C9494010C9494010C9494010C9494010C9494010C94C809BC
:200060000C9494010C9427040C9494010C9494010C9494010C94E6030C9494010C949401EE
:200080000C9494010C9494010C9494010C9494010C9494010C9494010C9494010C949401B8
:2000A0000C9494010C9494010C9494010B090E09FD08010907092F092F092F091209160975
:2000C0001A09200924092F092A090000000200090F0000030401000C00000000000000000E
:2000E00000000000000000000408020110408040102040804080080204018040201002012F
:20010000108010204040200404040404030405020202020403020202020606060606060420
:20012000040202020404000000002300260029002C002F0000000000250028002B002E003A
:20014000310000000000240027002A002D003000080B000202020100090400000102020070
:200160000005240010010524010101042402060524060001070581031000400904010002C9
:200180000A000000070502024000000705830240000000C18081C11201000202000040DD7D
:2001A0002900800001010200011201000200000040DD290080000101020001456D626564D4
:2001C000646564204D6963726F004D6F6A6F205632000403090400000000000000002A2B32
:2001E000280000000000000000000000000000000000000000002C9EB4A0A1A2A434A6A751
:20020000A5AE362D3738271E1F20212223242526B333B62EB7B89F8485868788898A8B8CC0
:200220008D8E8F909192939495969798999A9B9C9D2F3130A3AD350405060708090A0B0C7C
:200240000D0E0F101112131415161718191A1B1C1DAFB1B0B5000904020001030000000958
:2002600021010100012265000705840340000105010902A1010901A10085010509190129CA
:20028000031500250195037501810295017505810305010930093109381581257F750895F5
:2002A000038106C0C005010906A1018502050719E029E71500250175019508810295017505
:2002C00008810395067508150025650507190029658100C0C80BB21011241FBECFEFD5E0CD
:2002E000DEBFCDBF11E0A0E0B1E0E0EEF1E202C005900D92A033B107D9F724E0A0E3B1E0C9
:2003000001C01D92A834B207E1F712E0C8EDD2E004C02297FE010E94EA10C43DD107C9F7F6
:200320000E94CB0A0C94EE100C9400008EBD0DB407FEFDCF8EB50895599885E00E949601BC
:2003400080E00E94960180FDFBCF599A0895209A289A23980E94BD0884E00E94E50880E03C
:200360000E94E00881E00C94D7080E94A701599886E00E949601599A599881E00E949601BB
:2003800080E00E949601599A599886E00E949601599A599880E60E949601599A0E949C018C
:2003A0000C94D3081F93CF93DF9300D01F92CDB7DEB7182F4B836A8379830E94A7010E94B8
:2003C0009C01599886E00E949601599A599882E00E949601812F0E9496017981872F0E9436
:2003E00096016A81862F0E9496014B81842F0E949601599A0F900F900F90DF91CF911F9185
:200400000C94D308599881E090E00E94690A8EE00E949F09892BD9F3599A08956F927F92B0
:200420008F929F92AF92BF92CF92DF92EF92FF920F931F93CF93DF936B017C01EA0159019E
:200440002230310540F42130310509F070C04881C701B6015CC00E94A7010E949C01599852
:2004600080E70E949601599A599886E00E949601599A59988DEA0E9496018E2D0E949601D1
:200480008D2D0E9496018C2D0E94960188810E94960189810E949601599A0E94020202E077
:2004A00010E03501F2E06F1A710860167106A8F059988DEA0E9496014E01800E911EF4019B
:2004C00080810E949601F40181810E949601599A0E9402020E5F1F4FE8CF83010E7F0E5F09
:2004E0001F4F599884E00E949601599A599880E80E949601599A0A151B05C8F4C00FD11FCE
:20050000C701B601600F711F811D911D4881DF91CF911F910F91FF90EF90DF90CF90BF90FD
:20052000AF909F908F907F906F900C94D201DF91CF911F910F91FF90EF90DF90CF90BF9062
:20054000AF909F908F907F906F900895CF92DF92FF920F931F93CF93DF9300D000D0CDB7B4
:20056000DEB7F82E89014B835A8369839C830E94A701599883E00E9496016981862F0E9468
:2005800096015A81852F0E9496014B81842F0E949601CF2C9C81D92E0C0D1D1DC016D10625
:2005A00039F080E00E949601F60181936F01F6CF599A0F900F900F900F90DF91CF911F914A
:2005C0000F91FF90DF90CF900C94D308EDE4F1E0A081B1816C9380819181019691838083EE
:2005E000268137818217930721F484819581918380832FB7F89482859385019693878287D7
:200600002FBF089510927A001092C9000E94D30858983F9A479855985D9A089510927A0006
:2006200090E4499FA0011124922F9770942B90937C00283030F090E8699FB00111246062C2
:2006400003C067956627679560937B0020930301886E80937A0008950F931F9380FD2EC04E
:200660000E94120A00913101109132012091330130913401601B710B820B930B6A3F710509
:200680008105910570F4809130018F5F809330018530A0F081E090E090930601809305010D
:2006A0000DC00E94120A6093310170933201809333019093340181E0809330011F910F91C0
:2006C000089523B122952F7080910401281789F020930401223020F08CEF820F863038F47D
:2006E0004091020160910101809100016BC010927A002FB7F89480915701909158012FBF97
:20070000892B09F462C0E0914F01F09150014191F0935001E0934F0180915301909154012F
:20072000E817F90741F420915101309152013093500120934F01E0914F01F0915001219112
:20074000F0935001E0934F01E817F90741F480915101909152019093500180934F013FB72A
:20076000F8948091570190915801029790935801809357013FBF28984EBD0DB407FEFDCF2F
:200780008EB52EBD0DB407FEFDCF4EB5289A8A3A09F0AFCF842F87708093000150E0BA01F0
:2007A00093E0759567959A95E1F761706093010124E0559547952A95E1F743704093020109
:2007C000209104010E940E0394CF08951F920F920FB60F9211242F933F934F935F936F9359
:2007E0007F938F939F93AF93BF93EF93FF93609178008DE491E00E94E60280910301609110
:20080000790020E1829FC0011124682B8DE491E00E94E602FF91EF91BF91AF919F918F9158
:200820007F916F915F914F913F912F910F900FBE0F901F901895E9ECF0E080818061808357
:200840000895E9ECF0E080818F7E808308951F920F920FB60F9211242F933F934F935F9353
:200860006F937F938F939F93AF93BF93EF93FF93E0914101F09142018091CE0080838091FE
:200880004101909142010196909342018093410120914701309148018217930741F48091E4
:2008A000450190914601909342018093410180914B0190914C01019690934C0180934B019E
:2008C000843F21E0920730F08F3F914038F00E94210404C08BB190E289278BB9FF91EF9197
:2008E000BF91AF919F918F917F916F915F914F913F912F910F900FBE0F901F9018955D9A4A
:2009000058984798509A8FEF84B908955898479861E070E080E090E00E94410A479A4D9BE0
:20092000FECF089585B9589A589808958FEF85B98AE090E0589A58980197E1F708958F92EA
:200940009F92AF92BF92CF92DF92EF92FF920F931F93CF93DF930E947F040E94860425E072
:2009600030E040E050E0BA0189E591E00E94A602809159018A3A09F059C0C0905A01809136
:200980005B01D12CE12CF12CD82A80915C01E82A80915D01F82A45E050E060E070E01FEFCE
:2009A0004A015B018FEF981AA80AB80A8C149D04AE04BF0498F420E031E089E591E00E9418
:2009C000A60214B9C9E5D1E089910E94920482E0C935D807C9F7B501A401E2CF4C155D0523
:2009E0006E057F0570F0DF91CF911F910F91FF90EF90DF90CF90BF90AF909F908F900C9428
:200A000096048BEFC80E2C2D30E089E591E00E94A6028FEF84B909E511E0E8018C2F801B81
:200A20008C1508F789910E949204F8CFDF91CF911F910F91FF90EF90DF90CF90BF90AF9073
:200A40009F908F90089582EE93E00E94050BEDE4F1E02FB7F89489E591E0918380839383F6
:200A600082839583848389ED91E09783868380E890E091878087138612862FBFE1E4F1E09C
:200A80002FB7F89489ED91E091838083938382839583848389ED93E09783868380E092E0CE
:200AA00091878087138612862FBF8FE08093040184B18F7084B985B18F7085B981E090E0BC
:200AC0009093CD008093CC0086E08093CA0082E08093C80088E98093C900599A209A289A0B
:200AE0000E94A701539A52985A9A559A5D983F98589A5098089580E090E020E80FB6F89486
:200B000020936100809361000FBE519A599A509A3F9A83EF80937E0083E080937D0040E0C9
:200B200052EC61E070E082EE93E00E94B30B78940E949F040C942305EF92FF920F931F9324
:200B4000CF93DF9382EE93E00E94B90B882309F48CC02FB7F89440914B0150914C012FBFD9
:200B60004115510509F464C060914301709144018B01040F151F2091470130914801201720
:200B80003107D8F082EE93E00E94250BEC0180914301909144018C0F9D1F90934401809326
:200BA000430120914701309148018217930799F580914501909146012AC0021B130B7A01CE
:200BC000E01AF10AA70182EE93E00E94250BEC018E159F05B1F46091450170914601A801C2
:200BE00082EE93E00E94250B2091450130914601280F391F3093440120934301C80FD91FE4
:200C00000AC080914301909144018C0F9D1F90934401809343012FB7F89480914B01909149
:200C20004C018C1B9D0B90934C0180934B012FBF2FB7F89480914B0190914C012FBF843F6D
:200C4000914068F48BB190E289278BB90E941B0406C02091C80025FFFCCF8093CE0082EE85
:200C600093E00E94180B97FFF4CFDF91CF911F910F91FF90EF9008950E949C050C946103D1
:200C80008F929F92AF92BF92CF92DF92EF92FF920F931F93CF93DF93C0910501D0910601A5
:200CA000C230D105A1F0C330D10509F44BC2219709F056C20E94020382E090E0909306019C
:200CC000809305011092400110923F0149C282EE93E00E94180B7C01482F97FD41C28091E7
:200CE0003F01909140018230910509F4B0C034F4009771F0019709F44CC032C2843091059E
:200D000009F499C10CF463C1059709F4FAC128C210923B0110923C0110923D0110923E019C
:200D200010923701109238011092390110923A01463429F4109236011092350107C04635BB
:200D4000E1F41092360181E08093350181E090E09093400180933F0162E582EE93E0DF9119
:200D6000CF911F910F91FF90EF90DF90CF90BF90AF909F908F900C94DE0A423521F481E096
:200D800080933601E3CF453409F0EAC10E94B50150C180913B0190913C01A0913D01B09176
:200DA0003E018C019D010F5F1F4F2F4F3F4F00933B0110933C0120933D0130933E0150E00F
:200DC00060E070E0E3E0880F991FEA95E1F704C0440F551F661F771F8A95D2F78091370143
:200DE00090913801A0913901B0913A01842B952BA62BB72B8093370190933801A09339017C
:200E0000B0933A01043011052105310508F4A8C110923B0110923C0110923D0110923E01CB
:200E200080913601882359F083E090E09093400180933F010E947F040E94860406C0D09372
:200E40004001C0933F010E94B5016FE486CF80913B0190913C01A0913D01B0913E01892B70
:200E60008A2B8B2B39F44E2D65E070E080E090E00E94D20140913B0150913C0160913D012B
:200E800070913E018A019B010F5F1F4F2F4F3F4F00933B0110933C0120933D0130933E0161
:200EA000FF24FA94F40ECF2DD0E0FE01E75AFE4FE0828FEFF81210C0012B022B032B61F0B4
:200EC000CB01BA016A5F71098109910920E031E049E551E00E940E0280913B0190913C0157
:200EE000A0913D01B0913E0100913701109138012091390130913A0180179107A207B307E7
:200F000009F02EC12FEFF216A9F02196BC01CD016B5F7F4F8F4F9F4F8E01222717FD2095E3
:200F2000322F601B710B820B930B9E0149E551E00E940E0282E390E00E94690A80903B0148
:200F400090903C01A0903D01B0903E0135E0830E911CA11CB11CC12CD12C7601C394C0E012
:200F6000D0E0B501A4010C2E04C076956795579547950A94D2F7C701B6010E94D20182E3D9
:200F800090E00E94690A28962FEFC21AD20AE20AF20AC032D10529F782E390E00E94690A7E
:200FA0004AEA60E070E0CB010E94D20164E482EE93E00E94DE0A82EE93E00E94050B8091D1
:200FC0003501882309F496C084E090E095C08E2D0E94920480913B0190913C01A0913D01A7
:200FE000B0913E010196A11DB11D80933B0190933C01A0933D01B0933E01409137015091C2
:2010000038016091390170913A0184179507A607B70709F0A5C00E9496041092400110926F
:201020003F0183E090E090930601809305010E94230564E492CE433509F092C080913B01D8
:2010400090913C01A0913D01B0913E010596A11DB11D80933B0190933C01A0933D01B093B9
:201060003E01C12CD12C760100E011E0812C912C5401939480913B0190913C01A0913D01FF
:20108000B0913E01C816D906EA06FB0698F5B701A6015F5F6F4F7F4F84179507A607B7074A
:2010A00020F4EC01CC19DD0902C0C0E0D1E09E01B701A60189E591E00E94A602AE0169E52D
:2010C00071E082EE93E00E94250BEC016AE070E080E090E00E94410AC8018C1B9D0BA50108
:2010E0009401281B390B41095109C20ED31EE41EF51EC0CF85E090E09093400180933F013F
:201100002FC04C3469F50E949F0464E482EE93E00E94DE0A1092400110923F0183E090E070
:201120009093060180930501DF91CF911F910F91FF90EF90DF90CF90BF90AF909F908F9094
:201140000C942305DF91CF911F910F91FF90EF90DF90CF90BF90AF909F908F900C943C060D
:20116000DF91CF911F910F91FF90EF90DF90CF90BF90AF909F908F90089561E081E10E94B5
:20118000690961E081E10E9430098CB580618CBD8CB580648CBD61E08FE00E94300961E0BA
:2011A00080E10C9430098CB58F7B8CBD0895811103C08CB5806202C08CB58F7D8CBD089557
:2011C0009CB5937F982B9CBD08952CB5982F93702C7F922B9CBD9DB582FB882780F99E7F73
:2011E000982B9DBD089590E0FC013197EF30F105B0F5EA5AFF4F0C94E810809180008F7785
:2012000003C0809180008F7D80938000089580918000877FF9CF84B58F7702C084B58F7D99
:2012200084BD0895809190008F7707C0809190008F7D03C080919000877F8093900008950B
:201240008091C0008F7703C08091C0008F7D8093C00008958091C200877F8093C20008955C
:20126000CF93DF9390E0FC01E851FF4F2491FC01E95FFE4F8491882349F190E0880F991FA6
:20128000FC01EE5BFE4FA591B4918C5C9E4FFC01C591D4919FB7611108C0F8948C912095C5
:2012A00082238C93888182230AC0623051F4F8948C91322F309583238C938881822B8883C6
:2012C00004C0F8948C91822B8C939FBFDF91CF9108950F931F93CF93DF931F92CDB7DEB718
:2012E000282F30E0F901E653FF4F8491F901E851FF4F1491F901E95FFE4F04910023C9F0CB
:20130000882321F069830E94F3086981E02FF0E0EE0FFF1FEC5CFE4FA591B4919FB7F894B2
:201320008C91611103C01095812301C0812B8C939FBF0F90DF91CF911F910F910895CF936A
:20134000DF93282F30E0F901E653FF4F8491F901E851FF4FD491F901E95FFE4FC491CC2365
:2013600091F081110E94F308EC2FF0E0EE0FFF1FEA5DFE4FA591B4912C912D2381E090E0CA
:2013800021F480E002C080E090E0DF91CF9108951F920F920FB60F9211242F933F938F9336
:2013A0009F93AF93BF938091DA039091DB03A091DC03B091DD033091D90326E0230F2D3710
:2013C00020F40296A11DB11D05C029E8230F0396A11DB11D2093D9038093DA039093DB0328
:2013E000A093DC03B093DD038091DE039091DF03A091E003B091E1030196A11DB11D809354
:20140000DE039093DF03A093E003B093E103BF91AF919F918F913F912F910F900FBE0F902E
:201420001F9018952FB7F8946091DA037091DB038091DC039091DD032FBF08953FB7F89433
:201440008091DE039091DF03A091E003B091E10326B5A89B05C02F3F19F00196A11DB11DE1
:201460003FBF6627782F892F9A2F620F711D811D911D43E0660F771F881F991F4A95D1F73A
:201480000895CF92DF92EF92FF92CF93DF936B017C010E941E0AEB01C114D104E104F104D4
:2014A00089F00E94E7100E941E0A6C1B7D0B683E734090F381E0C81AD108E108F108C8514E
:2014C000DC4FEACFDF91CF91FF90EF90DF90CF9008958130910539F0029729F0880F991F6E
:2014E00001970197F1F70895789484B5826084BD84B5816084BD85B5826085BD85B58160FB
:2015000085BDEEE6F0E0808181608083E1E8F0E01082808182608083808181608083E0E842
:20152000F0E0808181608083E1E9F0E0808182608083808181608083E0E9F0E08081816016
:201540008083E1ECF0E0808184608083808182608083808181608083E3ECF0E080818160B7
:201560008083E0ECF0E0808182608083E2ECF0E0808181608083EAE7F0E0808184608083DA
:20158000808182608083808181608083808180688083089508950E94740A0E94CA0A82E35F
:2015A00094E00E94600F0E947B05C0E0D0E00E9440062097E1F30E940000F9CFCF93DF9383
:2015C0001F92CDB7DEB76983DC01ED91FC910280F381E02D41E050E0BE016F5F7F4F099520
:2015E0000F90DF91CF910895CF93DF93EC018C859D8597FF05C082E00E94B40C9D878C8795
:201600008C859D85DF91CF91089583E00C94080FFC018485958597FD06C082E00E945D0C29
:2016200090E00196089582E00E945D0C90E00895FC018485958597FD05C02FEF3FEF35870B
:201640002487089582E00C94B40CCF93DF93EC0180910E01882331F083E00E94E50C1816AF
:20166000190634F081E090E09B838A8380E090E0DF91CF910895FC0120812E5F208342E4FA
:2016800050E060E571E080E80C947F0D08950F93FC0181819081913A59F4813209F051C0CC
:2016A00047E050E067E071E080E00E947F0D58C0913209F046C08032B9F467E070E087E076
:2016C00091E00E94B00D00910B0120910C0140910D016091070170910801809109019091C1
:2016E0000A010E94460B0AC0823209F039C0828180930E0180910E010E942C03809107014D
:2017000090910801A0910901B0910A01803B9440A105B105C1F480910E0180FD14C087E799
:2017200097E790930104809300042BE088E190E00FB6F894A895809360000FBE2093600027
:201740000FC080E00EC088E10FB6F89480936000109260000FBEA895109201041092000406
:2017600081E00F9108952FEF3FEFFC01358724870895CF93C0910E016AE070E080E090E052
:201780000E94410A81E0C11101C080E0CF9108951092E5031092E40388EE93E0A0E0B0E0FF
:2017A0008093E6039093E703A093E803B093E90385E191E09093E3038093E2038FEF9FEFEF
:2017C0009093EF038093EE0308954091360450913704209134043091350442175307B4F4EE
:2017E0009091E8009570E1F39091E80092FD19C08093F100809136049091370401968F7352
:201800009927892B19F48EEF8093E80080913604909137040196909337048093360481E085
:20182000089580E00895CF92DF92FF920F931F93CF93DF931F92CDB7DEB7082F162F862F88
:20184000880F8E5F99830E94E50B83E00E94E50BF02EC02E9981D92E8C2D8F19811778F4CF
:20186000F60184910E94E50B082F80E00E94E50B8023FFEFCF1ADF0A8111EECF01C081E0CD
:201880000F90DF91CF911F910F91FF90DF90CF900895615030F02091F100FC0120830196E5
:2018A000F8CF84E68093390408952FB7FC012083F89467706093E9000895CF93DF931F9223
:2018C000CDB7DEB7682FCE0101960E94550C8091F20099819FBF0F90DF91CF910895FF92D7
:2018E0000F931F93CF93DF9300D0CDB7DEB7F62E8A0190913804992311F057FF03C08FEF77
:201900009FEF2AC0682FCE0101967A830E94550C8091F20090E0A8017A81801791070CF40C
:20192000AC01EF2DF72FF40E84E6FE1631F0809339049091F1009193F8CF4115510521F00D
:201940008091F200882321F089818FBFCA0104C08BE68093E800F8CF0F900F90DF91CF91A0
:201960001F910F91FF900895CF93DF931F92CDB7DEB741E050E0BE016F5F7F4F0E946F0C84
:20198000019719F4898190E002C08FEF9FEF0F90DF91CF910895CF93DF931F92CDB7DEB7B0
:2019A000682FCE0101960E94550C9091E800892F807295FF04C09091F20080E4891B9981E7
:2019C0009FBF0F90DF91CF9108956F927F928F929F92AF92BF92CF92DF92EF92FF920F9321
:2019E0001F93CF93DF931F92CDB7DEB7782E7B01C42EB52E80913804882369F0042F152FD8
:201A00008AEFD82E872D8072982E9AE3A92E872D8074882E11C08FEF9FEF56C0872D0E94E0
:201A2000CB0C682E81110CC0DA94A9F361E070E080E090E00E94410A0115110579F73BC0EC
:201A4000282F30E0021713070CF4602E672DCE0101960E94550C8091E80085FF29C0262DA8
:201A600030E0021B130B992039F06A948FEF6816B1F01092F100F9CFF701862D77FE07C05C
:201A8000815058F094919093F1003196F9CF815020F091919093F100FACFE20EF31E809173
:201AA000E80085FF0EC00115110511F4811009C089818FBFC1CF84E680933A048C2D9B2D3D
:201AC00003C0A092E800F4CF0F90DF91CF911F910F91FF90EF90DF90CF90BF90AF909F900E
:201AE0008F907F906F9008951092E900109237041092360490933504809334040895CF9233
:201B0000DF92FF920F931F93CF93DF9300D0CDB7DEB7F82E8A016B0101151105B1F0F601D1
:201B2000F7FE02C0849101C0808149835A830E94E50B01501109FFEFCF1ADF0A49815A810C
:201B40008111EACF8FEF9FEF01C0CA010F900F90DF91CF911F910F91FF90DF90CF9008954A
:201B60001F93CF93DF931F92CDB7DEB7162F2091E80022FFFCCF612F79830E94490C8BEF4E
:201B80008093E800812F7981972F0F90DF91CF911F910895CF93DF931F92CDB7DEB71982E5
:201BA000CE0101960E943B0BCE0101960E949A0F898190E00F90DF91CF9108951F920F924E
:201BC0000FB60F921124EF92FF920F931F932F933F934F935F936F937F938F939F93AF93F2
:201BE000BF93EF93FF93CF93DF93CDB7DEB76297DEBFCDBF1092E9008091E80083FFEBC0BF
:201C000068E0CE010A960E94490C82EF8093E8009A8597FF05C08091E80080FFFCCF03C02A
:201C20008EEF8093E800892F807609F0B9C08B85811105C01092F1001092F100C5C0282FA3
:201C40002D7F213009F4C0C0853049F48091E80080FFFCCF8C8580688093E300B5C08630BB
:201C600009F076C02D85E888F988223071F580E090E02A8B0E94740D0E94CA0D99E08E01B1
:201C80000F5F1F4FF801392F11923A95E9F799832A892A8391E09E8390E898879AEF998767
:201CA0002091360430913704275F3F4F3C832B838D83C7010E94740D49E050E0B80180E04F
:201CC0000E947F0D0E94CA0D7FC0C7012A8B0E94740D2A89223241F482E290E00E94A50F18
:201CE000892B09F071C074C0213069F488899989089711F42093330480913304811118C0B1
:201D000069EA71E01AC0233009F062C08C85882391F0823021F467E08AEC91E006C081302E
:201D200009F056C06EE08BEB91E00E94130C4AC067E971E002C062ED71E06115710509F4A8
:201D400047C0FB01449150E080E80E947F0D3CC0873009F43DC0883021F481E08093F10006
:201D600033C0893089F5937099F5E3E9F1E081E021E096E38093E9002093EB00349130930E
:201D8000EC009093ED008F5F3196853099F78EE78093EA001092EA008C858093380414C01B
:201DA000888999890E94740D8E85811105C0CE010A960E94470B06C0823051F4CE010A96D4
:201DC0000E94CD0F882321F08EEF8093E80003C081E28093EB0062960FB6F894DEBF0FBE7A
:201DE000CDBFDF91CF91FF91EF91BF91AF919F918F917F916F915F914F913F912F911F9177
:201E00000F91FF90EF900F900FBE0F901F9018958093E9008091F200882319F08AE380937A
:201E2000E80008951F920F920FB60F9211242F933F934F935F936F937F938F939F93AF931E
:201E4000BF93EF93FF938091E1001092E10083FF0FC01092E90091E09093EB001092EC00BE
:201E600092E39093ED001092380498E09093F00082FF15C083E00E94080F80913A04882308
:201E800029F080913A04815080933A0480913904882329F080913904815080933904FF91A7
:201EA000EF91BF91AF919F918F917F916F915F914F913F912F910F900FBE0F901F901895EB
:201EC0001092380481E08093D70080EA8093D80082E089BD09B400FEFDCF61E070E080E064
:201EE00090E00E94410A80E98093D8008CE08093E2001092E0000895FF920F931F93CF936A
:201F0000DF93EC01F62EE881F9810480F581E02D09958C01E881F9810680F781E02D6F2D9F
:201F2000CE010995C8019927DF91CF911F910F91FF900895FC0120812F5F208349E150E036
:201F400066E572E080E80C947F0D45E650E06FE672E080E80C947F0DEF92FF920F931F9354
:201F6000CF93DF931F92CDB7DEB789838B017A0141E050E0BE016F5F7F4F84E00E94E50C0D
:201F8000A701B80184E40E94E50C0F90DF91CF911F910F91FF90EF900895FC01918180816B
:201FA000813A31F481E0913091F0933089F411C0813271F49B3021F482818093100105C0A9
:201FC0009A3031F4828180930F0181E00895089580E0089548E050E082E00C94AC0FCF93DD
:201FE000DF93DC01683818F0E8E7E60F25C0E62FF0E067FF11C0E058F10981E090E001C061
:20200000880FEA95EAF714969C911497982B14969C931497E0E010C0EA52FE4FE491EE2361
:2020200009F440C0E7FF08C014968C911497826014968C931497EF7716968C9116978E17AC
:2020400041F117968C9117978E1719F118968C9118978E17F1F019968C9119978E17C9F04D
:202060001A968C911A978E17A1F01B968C911B978E1779F080E090E0ED01C80FD91F2E81E2
:20208000211102C0EE8305C0019686309105A1F709C0BD016C5F7F4FCD010E94EA0F81E0B1
:2020A00090E008C081E090E013969C938E93129780E090E0DF91CF910895683818F0E8E7C1
:2020C000E60F25C0E62FF0E067FF12C0E058F10921E030E001C0220FEA95EAF72095DC01E2
:2020E00014963C911497322314963C93E0E00FC0EA52FE4FE491EE2329F1E7FF08C0DC01AD
:2021000014962C9114972D7F14962C93EF7720E030E0EE2351F0DC01A20FB31F16964C91E7
:2021200016974E1302C016961C922F5F3F4F2630310579F7BC016C5F7F4F0E94EA0F81E00B
:2021400090E0089580E090E00895FC011682178210861186128613861482BC016C5F7F4F8D
:202160000C94EA0F1092470410923E0410923D0485E291E090933C0480933B040895CF9287
:20218000DF92EF92FF920F931F93CF93DF936C017A01EB01E60EF71E00E010E0CE15DF0520
:2021A00061F06991D601ED91FC910190F081E02DC6010995080F191FF1CFC801DF91CF91D6
:2021C0001F910F91FF90EF90DF90CF9008950895EE0FFF1F0590F491E02D0994F894FFCF60
:2021E0000501010F0F030000E1000000000000010100000000DE0A250B080B180BF40A0583
:102200000B000000007C0FBF10EF0F5D10A5100049
:203000005FC0000078C0000076C0000074C0000072C0000070C000006EC000006CC0000033
:203020006AC0000068C000007AC4000064C0000062C0000060C000005EC000005CC0000060
:203040005AC00000BDC0000056C0000054C0000052C0000050C000004EC000004CC0000073
:203060004AC0000048C0000046C0000044C0000042C0000040C000003EC000003CC0000038
:203080003AC0000038C0000036C0000034C0000032C0000030C000002EC000002CC0000098
:2030A0002AC0000028C0000026C00000FB1D141EBB1E141EBB1E4C1E6E1EBB1E8E1EA01EF1
:2030C00011241FBECFEFD5E0DEBFCDBF11E0A0E0B1E0E0E0FEE302C005900D92A63AB10711
:2030E000D9F711E0A6EAB1E001C01D92AA3BB107E1F713D383C684CF84E08093E900809116
:20310000E80085FD0DC08091E8008B778093E8008091E80082FDF3CF8EB38111F9CF02C0EB
:203120008091F100089593E09093E9009091E80095FF03C08093F10008959091E8009E7752
:203140009093E8009091E80090FDF4CF9EB39111F9CF0895F89410926F0010928100109251
:2031600085001092840081E085BF15BE0C940000089584B7877F84BF88E10FB6F89480939E
:203180006000109260000FBE90E880E00FB6F89490936100809361000FBE81E085BF82E00B
:2031A00085BFE1E6F0E090831082109289009AEF9093880080936F0083E08093810097C35D
:2031C0001F920F920FB60F9211242F938F939F93EF93FF931092850010928400E0E0F0E0FB
:2031E00085919491019649F08091A6019091A70101969093A7018093A601FF91EF919F91E7
:203200008F912F910F900FBE0F901F90189542E061EC82E001D342E161E883E0FDD242E101
:2032200060E884E0F9C28091B201982F9F77913239F59091B301903291F0913209F5813A01
:20324000F9F48091E800877F8093E80067E070E083E091E012D48091E8008B770FC08132B9
:2032600079F48091E800877F8093E80067E070E083E091E05FD48091E8008E778093E80050
:2032800008954F925F926F927F92AF92BF92CF92DF92EF92FF920F931F93CF93DF9384E0AB
:2032A0008093E9008091E80082FF28C225DFC82F853481F48CE49DE19093A7018093A60112
:2032C00007B600FCFDCFF999FECF81E180935700E89503C0843521F40FDF8DE024DFE5C12C
:2032E0008C34D9F38035C9F3843721F484E41BDF80E0F4CF813611F489E5F0CF813491F459
:20330000FBDEC82FF9DE90E0880F991F2C2F30E0322F2227330F822B932BAA2797FDA095EB
:20332000BA2F97C1803711F483E5D8CF833549F4CCE9D1E01C2F195F8991F5DE1C13FCCF7C
:20334000B4C1863521F481E3EEDE80E3C7CF833731F488E8E8DE84E9E6DE8EE1BFCF853601
:20336000B9F4E0E0F0E083E095E080935700E89507B600FCFDCF90935700E89507B600FC1C
:20338000FDCFE058FF4FE11520E3F20771F7A5CF823719F4E1E0F0E00EC0863419F4E0E061
:2033A000F0E009C08E3419F4E3E0F0E004C0813539F4E2E0F0E089E08093570084918ECF94
:2033C000823631F489E5AFDE80E0ADDE80E886CF823419F0873609F0D4C01092A701109278
:2033E000A6018ADE082F10E0102F002785DE082B83DEB82E8BEB8B0D823010F08FE36ECFE5
:2034000010926F00C73609F043C081E180935700E895E80110E001E0209709F4AEC0C0902D
:20342000AC01D090AD01E090AE01F090AF0186E4B81217C0E12FF0E0EC29FD29849173DEF6
:20344000112369F0E2E0CE0ED11CE11CF11CC092AC01D092AD01E092AE01F092AF011027B1
:2034600015C0D701C601B695A79597958795B0D45ADEF2E0CF0ED11CE11CF11CC092AC01A8
:20348000D092AD01E092AE01F092AF012197C4CF4090AC015090AD016090AE017090AF0124
:2034A00026E4B21208C083E0F20180935700E89507B600FCFDCFE80100E010E0AA24A394F6
:2034C000209709F44DC0F6E4BF1226C0112301F1C090AC01D090AD01E090AE01F090AF011A
:2034E0000BDE202F30E0382BF6010901A0925700E8951124F2E0CF0ED11CE11CF11CC092ED
:20350000AC01D092AD01E092AE01F092AF0102C0F3DD082F1A2522C0EFDD682F8091AC0190
:203520009091AD01A091AE01B091AF01B695A7959795879555D48091AC019091AD01A09135
:20354000AE01B091AF010296A11DB11D8093AC019093AD01A093AE01B093AF012197B0CF0A
:2035600026E4B21208C085E0F20180935700E89507B600FCFDCF8DE0D6DD82E080936F00ED
:2035800094C0833471F4C091AC01D091AD01B4DD90E021E0FE010C0120935700E8951124E4
:2035A0009CCE833601F5C090AC01D090AD01E090AE01F090AF01A0DDF601E16090E021E072
:2035C0000C0120935700E8951124F2E0CF0ED11CE11CF11CC092AC01D092AD01E092AE014C
:2035E000F092AF017ACE8D3661F4E091AC01F091AD0185E080935700E89507B600FCFDCF1B
:203600006CCE823551F4E091AC01F091AD01C591D4918D2F88DD8C2F61CE843419F56CDD52
:20362000682F8091AC019091AD01A091AE01B091AF01B695A79597958795D2D38091AC0163
:203640009091AD01A091AE01B091AF010296A11DB11D8093AC019093AD01A093AE01B093F0
:20366000AF013BCE8436F1F4C090AC01D090AD01E090AE01F090AF01D701C601B695A79572
:2036800097958795A5D34FDD22E0C20ED11CE11CF11CC092AC01D092AD01E092AE01F092C3
:2036A000AF0103C08B3109F0A9CE83E08093E9009091E8008091E8008E778093E80095FD78
:2036C00011C08091E80080FD04C08EB38111F9CF15C08091E8008E778093E80003C08EB372
:2036E000882361F08091E80080FFF9CF84E08093E9008091E8008B778093E800DF91CF9168
:203700001F910F91FF90EF90DF90CF90BF90AF907F906F905F904F90089520910004309100
:203720000104109201041092000484B714BE98E10FB6F89490936000109260000FBE81FD90
:203740001AC080FF09C0E0E0F0E0459154914F3F5F4F11F0FFDC0FC083FF0DC080910001B4
:20376000909101012817390731F0E0E0F0E085919491019679F7FDDC78941092A7011092E3
:20378000A60180910201882361F07BDD0AD38091A6019091A70181349F4198F310920201F7
:2037A000F0CF8091E00081608093E000D3DC80E090E00895292F30E02230310559F02330DD
:2037C000310569F021303105F9F482E190E02AE831E01EC08EE390E02CE431E019C088238C
:2037E00049F0813061F0823079F488E190E02AE031E00EC084E090E028E431E009C082E28F
:2038000090E024E231E004C080E090E020E030E0FA013183208308958093E900EBEEF0E0E9
:20382000808181608083EDEEF0E010826093EC0040838091EE00881F8827881F089580911A
:20384000B20187FF0FC08091E80082FD04C08EB38111F9CF10C08091E8008B770AC08EB3B3
:20386000882349F08091E80080FFF9CF8091E8008E778093E80008950F931F93CF93DF9366
:2038800041D048D0C8EDD0E088818F77888388818068888388818F7D888319BC1EBA109215
:2038A000B00100EE10E0F80180818B7F808388818160888342E060E080E0AEDFE1EEF0E08F
:2038C00080818E7F8083E2EEF0E0808181608083808188608083F80180818E7F8083888153
:2038E00080618883DF91CF911F910F910895E7EDF0E08081816080838AE482BF81E0809373
:20390000B101BACFE8EDF0E080818E7F80831092E20008951092DA001092E10008951F9248
:203920000F920FB60F9211242F933F934F935F936F937F938F939F93AF93BF93EF93FF93D3
:203940008091DA0080FF19C08091D80080FF15C08091DA008E7F8093DA008091D90019BC43
:2039600080FF09C082E089BD09B400FEFDCF81E08EBB16D202C01EBA13D28091E10080FF4E
:2039800017C08091E20080FF13C08091E2008E7F8093E2008091E20080618093E20080913C
:2039A000D80080628093D80019BC85E08EBBF8D18091E10084FF2BC08091E20084FF27C059
:2039C00019BC82E089BD09B400FEFDCF8091D8008F7D8093D8008091E1008F7E8093E10010
:2039E0008091E2008F7E8093E2008091E20081608093E2008091B001811106C08091E300FB
:203A000087FD02C081E001C084E08EBBC9D18091E10083FF21C08091E20083FF1DC080913F
:203A2000E100877F8093E10082E08EBB1092B0018091E1008E7F8093E1008091E2008E7FBA
:203A40008093E2008091E20080618093E20042E060E080E0E1DEA4D1FF91EF91BF91AF9112
:203A60009F918F917F916F915F914F913F912F910F900FBE0F901F9018952091B8013091F4
:203A8000B9012617370748F06115710539F42091E8002E772093E80001C0B90140E06115B6
:203AA0007105A1F12EB3222309F440C0253009F43FC02091E80023FD37C02091E80022FD22
:203AC0002DC02091E80020FFEACF4091F3002091F20030E0342BFC01CF016115710559F0B0
:203AE0002830310540F481918093F100615071092F5F3F4FF1CF41E02830310509F040E01F
:203B00002091E8002E772093E800C9CF4111CACF05C08EB3882351F0853051F08091E80068
:203B200082FFF7CF80E0089581E0089582E0089583E008956115710529F42091E8002B7700
:203B40002093E800FC016115710531F18EB3882359F1853059F18091E80083FD23C080911D
:203B6000E80082FFF0CF2091F3008091F20090E0922B892B31F08091F10081936150710933
:203B800091F78091E8008B778093E800DCCF8EB3882351F0853051F08091E80080FFF7CF9B
:203BA00080E0089581E0089582E0089583E008950F931F93CF93DF9300D0CDB7DEB7E2EB2D
:203BC000F1E088E08E0F9091F10091938E13FBCF2ADB8091E80083FFCEC08091B20190917B
:203BE000B301492F50E04A30510508F0C4C0FA01EA5AF74EE7C0823809F0BDC08091B601FA
:203C000087708093E9008091EB001092E9009091E800977F9093E80085FB882780F9809345
:203C2000F1001092F10085C0282F2D7F09F0A3C0823009F0A0C08091B401811127C0809101
:203C4000B601877009F497C08093E9002091EB0020FF1CC0933021F48091EB00806214C045
:203C60009091EB0090619093EB0021E030E0A90102C0440F551F8A95E2F74093EA0010929E
:203C8000EA008091EB0088608093EB001092E9008091E800877F50C081116DC01091B401A9
:203CA0001F770FB7F8948091E800877F8093E800C6DD8091E80080FFFCCF8091E300807850
:203CC000812B8093E30080688093E300111102C082E001C083E08EBB0FBF4DC0805882304C
:203CE00008F049C0AE014F5F5F4F6091B6018091B4019091B5015EDDBC01009709F43BC0EC
:203D00009091E800977F9093E80089819A81B5DE8091E8008B778093E8002DC0803859F5D8
:203D20008091E800877F8093E8008091B0018093F1008091E8008E778093E80080DD1BC092
:203D4000811119C09091B4019230A8F48091E800877F8093E8009093B00171DD8091B001E6
:203D6000811106C08091E30087FD02C081E001C084E08EBB4CDA8091E80083FF0AC0809166
:203D8000EB0080628093EB008091E800877F8093E8000F900F90DF91CF911F910F91089563
:203DA0000895CF938EB3882359F0C091E900C7701092E9008091E80083FDFADEC093E90046
:203DC000CF910895EE0FFF1F0590F491E02D0994F999FECF92BD81BDF89A992780B50895F7
:203DE000262FF999FECF1FBA92BD81BD20BD0FB6F894FA9AF99A0FBE01960895F894FFCFF9
:203E000077770100000000000008180355006E006B006E006F0077006E0020002000200040
:203E2000200000002203550053004200200049004F00200062006F00610072006400200053
:203E400020002000200000000403090409023E0002010080320904000001020201000524B4
:203E6000001001042402040524060001070582030800FF09040100020A000000070504020F
:203E8000100001070583021000011201100102000008DD2900000100020100014341544519
:063EA00052494E410000F2
:0400000500003000C7
:00000001FF
