:100000000C946C010C9494010C9494010C94940144
:100010000C9494010C9494010C9494010C9494010C
:100020000C9494010C9494010C94120F0C94DE0D1A
:100030000C9494010C9494010C9494010C949401EC
:100040000C9494010C9494010C9494010C949401DC
:100050000C9494010C9494010C9494010C94C80990
:100060000C9494010C9427040C9494010C94940126
:100070000C9494010C94E6030C9494010C94940158
:100080000C9494010C9494010C9494010C9494019C
:100090000C9494010C9494010C9494010C9494018C
:1000A0000C9494010C9494010C9494010B090E0986
:1000B000FD08010907092F092F092F09120916093F
:1000C0001A09200924092F092A0900000002000941
:1000D0000F0000030401000C0000000000000000FD
:1000E00000000000000000000408020110408040F1
:1000F000102040804080080204018040201002014E
:10010000108010204040200404040404030405026D
:1001100002020204030202020206060606060604A2
:10012000040202020404000000002300260029004B
:100130002C002F0000000000250028002B002E00BE
:10014000310000000000240027002A002D003000AC
:10015000080B000202020100090400000102020073
:1001600000052400100105240101010424020605F4
:100170002406000107058103100040090401000264
:100180000A00000007050202400000070583024044
:10019000000000C18081C11201000202000040DDA8
:1001A000290180000101020001120100020000008B
:1001B00040DD290180000101020001456D62656496
:1001C000646564204D6963726F004D6F6A6F2056DD
:1001D00033000403090400000000000000002A2B83
:1001E00028000000000000000000000000000000E7
:1001F0000000000000002C9EB4A0A1A2A434A6A779
:10020000A5AE362D3738271E1F2021222324252670
:10021000B333B62EB7B89F8485868788898A8B8C3E
:100220008D8E8F909192939495969798999A9B9C86
:100230009D2F3130A3AD350405060708090A0B0CC4
:100240000D0E0F101112131415161718191A1B1C66
:100250001DAFB1B0B50009040200010300000009A0
:10026000210101000122650007058403400001050A
:10027000010902A1010901A100850105091901294E
:10028000031500250195037501810295017505810E
:100290000305010930093109381581257F75089555
:1002A000038106C0C005010906A1018502050719E1
:1002B000E029E71500250175019508810295017572
:1002C000088103950675081500256505071900299D
:1002D000658100C0C80BB21011241FBECFEFDAE059
:1002E000DEBFCDBF11E0A0E0B1E0E0EEF1E202C080
:1002F00005900D92A033B107D9F726E0A0E3B1E055
:1003000001C01D92A834B207E1F712E0C8EDD2E0B7
:1003100004C02297FE010E94EA10C43DD107C9F72C
:100320000E94CB0A0C94EE100C9400008EBD0DB40C
:1003300007FEFDCF8EB50895599885E00E9496017D
:1003400080E00E94960180FDFBCF599A0895209A83
:10035000289A23980E94BD0884E00E94E50880E066
:100360000E94E00881E00C94D7080E94A7015998E8
:1003700086E00E949601599A599881E00E94960160
:1003800080E00E949601599A599886E00E94960151
:10039000599A599880E60E949601599A0E949C01A8
:1003A0000C94D3081F93CF93DF9300D01F92CDB747
:1003B000DEB7182F4B836A8379830E94A7010E94BE
:1003C0009C01599886E00E949601599A599882E0BA
:1003D0000E949601812F0E9496017981872F0E94A9
:1003E00096016A81862F0E9496014B81842F0E947C
:1003F0009601599A0F900F900F90DF91CF911F9116
:100400000C94D308599881E090E00E94690A8EE02C
:100410000E949F09892BD9F3599A08956F927F9270
:100420008F929F92AF92BF92CF92DF92EF92FF9204
:100430000F931F93CF93DF936B017C01EA01590166
:100440002230310540F42130310509F070C0488177
:10045000C701B6015CC00E94A7010E949C01599887
:1004600080E70E949601599A599886E00E94960169
:10047000599A59988DEA0E9496018E2D0E949601F4
:100480008D2D0E9496018C2D0E94960188810E94DC
:10049000960189810E949601599A0E94020202E007
:1004A00010E03501F2E06F1A710860167106A8F0CD
:1004B00059988DEA0E9496014E01800E911EF4011A
:1004C00080810E949601F40181810E949601599ACF
:1004D0000E9402020E5F1F4FE8CF83010E7F0E5F66
:1004E0001F4F599884E00E949601599A599880E8C4
:1004F0000E949601599A0A151B05C8F4C00FD11F16
:10050000C701B601600F711F811D911D4881DF91E8
:10051000CF911F910F91FF90EF90DF90CF90BF9000
:10052000AF909F908F907F906F900C94D201DF914D
:10053000CF911F910F91FF90EF90DF90CF90BF90E0
:10054000AF909F908F907F906F900895CF92DF92A1
:10055000FF920F931F93CF93DF9300D000D0CDB7BE
:10056000DEB7F82E89014B835A8369839C830E94EE
:10057000A701599883E00E9496016981862F0E9405
:1005800096015A81852F0E9496014B81842F0E94EB
:100590009601CF2C9C81D92E0C0D1D1DC016D106A5
:1005A00039F080E00E949601F60181936F01F6CF49
:1005B000599A0F900F900F900F90DF91CF911F914C
:1005C0000F91FF90DF90CF900C94D308EDE4F1E011
:1005D000A081B1816C938081918101969183808308
:1005E000268137818217930721F484819581918335
:1005F00080832FB7F89482859385019693878287AD
:100600002FBF089510927A001092C9000E94D3085B
:1006100058983F9A479855985D9A089510927A0095
:1006200090E4499FA0011124922F9770942B9093EE
:100630007C00283030F090E8699FB001112460629E
:1006400003C067956627679560937B00209303013D
:10065000886E80937A0008950F931F9380FD2EC0BB
:100660000E94120A00913101109132012091330150
:1006700030913401601B710B820B930B6A3F710543
:100680008105910570F4809130018F5F8093300176
:100690008530A0F081E090E0909306018093050101
:1006A0000DC00E94120A6093310170933201809351
:1006B00033019093340181E0809330011F910F91B9
:1006C000089523B122952F7080910401281789F095
:1006D00020930401223020F08CEF820F863038F412
:1006E0004091020160910101809100016BC0109264
:1006F0007A002FB7F89480915701909158012FBF3D
:10070000892B09F462C0E0914F01F09150014191B1
:10071000F0935001E0934F01809153019091540167
:10072000E817F90741F420915101309152013093BB
:10073000500120934F01E0914F01F0915001219120
:10074000F0935001E0934F01E817F90741F48091CD
:100750005101909152019093500180934F013FB706
:10076000F894809157019091580102979093580105
:10077000809357013FBF28984EBD0DB407FEFDCFB3
:100780008EB52EBD0DB407FEFDCF4EB5289A8A3A20
:1007900009F0AFCF842F87708093000150E0BA0139
:1007A00093E0759567959A95E1F761706093010103
:1007B00024E0559547952A95E1F74370409302014F
:1007C000209104010E940E0394CF08951F920F926E
:1007D0000FB60F9211242F933F934F935F936F9314
:1007E0007F938F939F93AF93BF93EF93FF9360910A
:1007F00078008DE491E00E94E6028091030160910F
:10080000790020E1829FC0011124682B8DE491E0E2
:100810000E94E602FF91EF91BF91AF919F918F915E
:100820007F916F915F914F913F912F910F900FBEEC
:100830000F901F901895E9ECF0E080818061808333
:100840000895E9ECF0E080818F7E808308951F9207
:100850000F920FB60F9211242F933F934F935F93F4
:100860006F937F938F939F93AF93BF93EF93FF9378
:10087000E0914101F09142018091CE00808380910E
:100880004101909142010196909342018093410170
:1008900020914701309148018217930741F48091DC
:1008A00045019091460190934201809341018091CE
:1008B0004B0190914C01019690934C0180934B0118
:1008C000883E23E0920730F08D3F934038F00E943D
:1008D000210404C08BB190E289278BB9FF91EF917D
:1008E000BF91AF919F918F917F916F915F914F9148
:1008F0003F912F910F900FBE0F901F9018955D9A0A
:1009000058984798509A8FEF84B908955898479807
:1009100061E070E080E090E00E94410A479A4D9BC0
:10092000FECF089585B9589A589808958FEF85B9E4
:100930008AE090E0589A58980197E1F708958F92CD
:100940009F92AF92BF92CF92DF92EF92FF920F935E
:100950001F93CF93DF930E947F040E94860425E0BB
:1009600030E040E050E0BA0189E591E00E94A60243
:10097000809159018A3A09F059C0C0905A0180917A
:100980005B01D12CE12CF12CD82A80915C01E82A62
:1009900080915D01F82A45E050E060E070E01FEFD3
:1009A0004A015B018FEF981AA80AB80A8C149D04BB
:1009B000AE04BF0498F420E031E089E591E00E94A4
:1009C000A60214B9C9E5D1E089910E94920482E09F
:1009D000C935D807C9F7B501A401E2CF4C155D05AB
:1009E0006E057F0570F0DF91CF911F910F91FF9001
:1009F000EF90DF90CF90BF90AF909F908F900C942E
:100A000096048BEFC80E2C2D30E089E591E00E9412
:100A1000A6028FEF84B909E511E0E8018C2F801B55
:100A20008C1508F789910E949204F8CFDF91CF913D
:100A30001F910F91FF90EF90DF90CF90BF90AF90FC
:100A40009F908F90089582EE95E00E94050BEDE453
:100A5000F1E02FB7F89489E591E091838083938347
:100A600082839583848389ED91E09783868380E8F0
:100A700090E091878087138612862FBFE1E4F1E032
:100A80002FB7F89489ED91E09183808393838283DB
:100A90009583848389ED95E09783868380E094E055
:100AA00091878087138612862FBF8FE08093040181
:100AB00084B18F7084B985B18F7085B981E090E081
:100AC0009093CD008093CC0086E08093CA0082E0B2
:100AD0008093C80088E98093C900599A209A289A7F
:100AE0000E94A701539A52985A9A559A5D983F9836
:100AF000589A5098089580E090E020E80FB6F89456
:100B000020936100809361000FBE519A599A509AC8
:100B10003F9A83EF80937E0083E080937D0040E0E6
:100B200052EC61E070E082EE95E00E94B30B7894A5
:100B30000E949F040C942305EF92FF920F931F9342
:100B4000CF93DF9382EE95E00E94B90B882309F4DE
:100B50008CC02FB7F89440914B0150914C012FBF9E
:100B60004115510509F464C060914301709144013D
:100B70008B01040F151F2091470130914801201768
:100B80003107D8F082EE95E00E94250BEC018091B0
:100B90004301909144018C0F9D1F909344018093D9
:100BA000430120914701309148018217930799F53D
:100BB00080914501909146012AC0021B130B7A01D6
:100BC000E01AF10AA70182EE95E00E94250BEC01E4
:100BD0008E159F05B1F46091450170914601A80101
:100BE00082EE95E00E94250B20914501309146014F
:100BF000280F391F3093440120934301C80FD91F98
:100C00000AC080914301909144018C0F9D1F9093E5
:100C10004401809343012FB7F89480914B01909148
:100C20004C018C1B9D0B90934C0180934B012FBF6B
:100C30002FB7F89480914B0190914C012FBF883EC3
:100C4000934068F48BB190E289278BB90E941B0412
:100C500006C02091C80025FFFCCF8093CE0082EE15
:100C600095E00E94180B97FFF4CFDF91CF911F9171
:100C70000F91FF90EF9008950E949C050C946103E2
:100C80008F929F92AF92BF92CF92DF92EF92FF929C
:100C90000F931F93CF93DF93C0910501D09106016D
:100CA000C230D105A1F0C330D10509F44BC2219760
:100CB00009F056C20E94020382E090E09093060180
:100CC000809305011092400110923F0149C282EECB
:100CD00095E00E94180B7C01482F97FD41C280913E
:100CE0003F01909140018230910509F4B0C034F485
:100CF000009771F0019709F44CC032C2843091051D
:100D000009F499C10CF463C1059709F4FAC128C22A
:100D100010923B0110923C0110923D0110923E0155
:100D200010923701109238011092390110923A0155
:100D3000463429F4109236011092350107C0463529
:100D4000E1F41092360181E08093350181E090E07A
:100D50009093400180933F0162E582EE95E0DF9140
:100D6000CF911F910F91FF90EF90DF90CF90BF90A8
:100D7000AF909F908F900C94DE0A423521F481E071
:100D800080933601E3CF453409F0EAC10E94B501F2
:100D900050C180913B0190913C01A0913D01B091E7
:100DA0003E018C019D010F5F1F4F2F4F3F4F00935E
:100DB0003B0110933C0120933D0130933E0150E0F4
:100DC00060E070E0E3E0880F991FEA95E1F704C066
:100DD000440F551F661F771F8A95D2F78091370100
:100DE00090913801A0913901B0913A01842B952B53
:100DF000A62BB72B8093370190933801A09339012C
:100E0000B0933A01043011052105310508F4A8C159
:100E100010923B0110923C0110923D0110923E0154
:100E200080913601882359F083E090E0909340014F
:100E300080933F010E947F040E94860406C0D093E5
:100E40004001C0933F010E94B5016FE486CF8091BD
:100E50003B0190913C01A0913D01B0913E01892B55
:100E60008A2B8B2B39F44E2D65E070E080E090E00A
:100E70000E94D20140913B0150913C0160913D01A3
:100E800070913E018A019B010F5F1F4F2F4F3F4F13
:100E900000933B0110933C0120933D0130933E01B0
:100EA000FF24FA94F40ECF2DD0E0FE01E75AFE4F56
:100EB000E0828FEFF81210C0012B022B032B61F0A0
:100EC000CB01BA016A5F71098109910920E031E023
:100ED00049E551E00E940E0280913B0190913C0156
:100EE000A0913D01B0913E01009137011091380170
:100EF0002091390130913A0180179107A207B30779
:100F000009F02EC12FEFF216A9F02196BC01CD01F8
:100F10006B5F7F4F8F4F9F4F8E01222717FD2095CC
:100F2000322F601B710B820B930B9E0149E551E040
:100F30000E940E0282E390E00E94690A80903B01C9
:100F400090903C01A0903D01B0903E0135E0830EB1
:100F5000911CA11CB11CC12CD12C7601C394C0E002
:100F6000D0E0B501A4010C2E04C076956795579585
:100F700047950A94D2F7C701B6010E94D20182E3D5
:100F800090E00E94690A28962FEFC21AD20AE20A5C
:100F9000F20AC032D10529F782E390E00E94690A83
:100FA0004AEA60E070E0CB010E94D20164E482EE84
:100FB00095E00E94DE0A82EE95E00E94050B80918A
:100FC0003501882309F496C084E090E095C08E2D09
:100FD0000E94920480913B0190913C01A0913D01BF
:100FE000B0913E010196A11DB11D80933B019093EC
:100FF0003C01A0933D01B0933E01409137015091D7
:1010000038016091390170913A0184179507A6075C
:10101000B70709F0A5C00E949604109240011092F3
:101020003F0183E090E090930601809305010E94C8
:10103000230564E492CE433509F092C080913B01D0
:1010400090913C01A0913D01B0913E010596A11DFA
:10105000B11D80933B0190933C01A0933D01B0935F
:101060003E01C12CD12C760100E011E0812C912CA5
:101070005401939480913B0190913C01A0913D01DA
:10108000B0913E01C816D906EA06FB0698F5B701ED
:10109000A6015F5F6F4F7F4F84179507A607B707BD
:1010A00020F4EC01CC19DD0902C0C0E0D1E09E01C2
:1010B000B701A60189E591E00E94A602AE0169E5AB
:1010C00071E082EE95E00E94250BEC016AE070E091
:1010D00080E090E00E94410AC8018C1B9D0BA50195
:1010E0009401281B390B41095109C20ED31EE41E7D
:1010F000F51EC0CF85E090E09093400180933F01C2
:101100002FC04C3469F50E949F0464E482EE95E0A0
:101110000E94DE0A1092400110923F0183E090E0AD
:101120009093060180930501DF91CF911F910F915C
:10113000FF90EF90DF90CF90BF90AF909F908F90F7
:101140000C942305DF91CF911F910F91FF90EF90A9
:10115000DF90CF90BF90AF909F908F900C943C0603
:10116000DF91CF911F910F91FF90EF90DF90CF9083
:10117000BF90AF909F908F90089561E081E10E94B1
:10118000690961E081E10E9430098CB580618CBD04
:101190008CB580648CBD61E08FE00E94300961E015
:1011A00080E10C9430098CB58F7B8CBD0895811142
:1011B00003C08CB5806202C08CB58F7D8CBD089554
:1011C0009CB5937F982B9CBD08952CB5982F937058
:1011D0002C7F922B9CBD9DB582FB882780F99E7F3A
:1011E000982B9DBD089590E0FC013197EF30F105FB
:1011F000B0F5EA5AFF4F0C94E810809180008F7789
:1012000003C0809180008F7D80938000089580913D
:101210008000877FF9CF84B58F7702C084B58F7D3A
:1012200084BD0895809190008F7707C080919000D1
:101230008F7D03C080919000877F809390000895F8
:101240008091C0008F7703C08091C0008F7D809314
:10125000C00008958091C200877F8093C2000895E6
:10126000CF93DF9390E0FC01E851FF4F2491FC0104
:10127000E95FFE4F8491882349F190E0880F991F20
:10128000FC01EE5BFE4FA591B4918C5C9E4FFC017E
:10129000C591D4919FB7611108C0F8948C912095A5
:1012A00082238C93888182230AC0623051F4F8949F
:1012B0008C91322F309583238C938881822B888365
:1012C00004C0F8948C91822B8C939FBFDF91CF91B7
:1012D00008950F931F93CF93DF931F92CDB7DEB77F
:1012E000282F30E0F901E653FF4F8491F901E851CE
:1012F000FF4F1491F901E95FFE4F04910023C9F0FB
:10130000882321F069830E94F3086981E02FF0E0CF
:10131000EE0FFF1FEC5CFE4FA591B4919FB7F894C0
:101320008C91611103C01095812301C0812B8C9396
:101330009FBF0F90DF91CF911F910F910895CF9391
:10134000DF93282F30E0F901E653FF4F8491F90134
:10135000E851FF4FD491F901E95FFE4FC491CC23CE
:1013600091F081110E94F308EC2FF0E0EE0FFF1FC7
:10137000EA5DFE4FA591B4912C912D2381E090E080
:1013800021F480E002C080E090E0DF91CF910895E9
:101390001F920F920FB60F9211242F933F938F93AA
:1013A0009F93AF93BF938091DA059091DB05A09155
:1013B000DC05B091DD053091D90526E0230F2D37EE
:1013C00020F40296A11DB11D05C029E8230F039644
:1013D000A11DB11D2093D9058093DA059093DB05FB
:1013E000A093DC05B093DD058091DE059091DF05CB
:1013F000A091E005B091E1050196A11DB11D80937A
:10140000DE059093DF05A093E005B093E105BF9161
:10141000AF919F918F913F912F910F900FBE0F90A1
:101420001F9018952FB7F8946091DA057091DB053D
:101430008091DC059091DD052FBF08953FB7F894AA
:101440008091DE059091DF05A091E005B091E10566
:1014500026B5A89B05C02F3F19F00196A11DB11D0F
:101460003FBF6627782F892F9A2F620F711D811D2C
:10147000911D43E0660F771F881F991F4A95D1F78A
:101480000895CF92DF92EF92FF92CF93DF936B019B
:101490007C010E941E0AEB01C114D104E104F10495
:1014A00089F00E94E7100E941E0A6C1B7D0B683EAB
:1014B000734090F381E0C81AD108E108F108C851DF
:1014C000DC4FEACFDF91CF91FF90EF90DF90CF908C
:1014D00008958130910539F0029729F0880F991FFE
:1014E00001970197F1F70895789484B5826084BDDF
:1014F00084B5816084BD85B5826085BD85B5816018
:1015000085BDEEE6F0E0808181608083E1E8F0E077
:101510001082808182608083808181608083E0E8A6
:10152000F0E0808181608083E1E9F0E08081826089
:101530008083808181608083E0E9F0E08081816048
:101540008083E1ECF0E08081846080838081826030
:101550008083808181608083E3ECF0E08081816022
:101560008083E0ECF0E0808182608083E2ECF0E058
:10157000808181608083EAE7F0E0808184608083FD
:1015800080818260808380818160808380818068A7
:101590008083089508950E94740A0E94CA0A82E313
:1015A00096E00E94600F0E947B05C0E0D0E00E94A0
:1015B00040062097E1F30E940000F9CFCF93DF931C
:1015C0001F92CDB7DEB76983DC01ED91FC910280FB
:1015D000F381E02D41E050E0BE016F5F7F4F099540
:1015E0000F90DF91CF910895CF93DF93EC018C851D
:1015F0009D8597FF05C082E00E94B40C9D878C8773
:101600008C859D85DF91CF91089583E00C94080F20
:10161000FC018485958597FD06C082E00E945D0CE3
:1016200090E00196089582E00E945D0C90E008959C
:10163000FC018485958597FD05C02FEF3FEF358729
:101640002487089582E00C94B40CCF93DF93EC01CF
:1016500080910E01882331F083E00E94E50C18167A
:10166000190634F081E090E09B838A8380E090E06B
:10167000DF91CF910895FC0120812E5F208342E409
:1016800050E060E571E080E80C947F0D08950F93C1
:10169000FC0181819081913A59F4813209F051C065
:1016A00047E050E067E071E080E00E947F0D58C0A5
:1016B000913209F046C08032B9F467E070E087E00B
:1016C00091E00E94B00D00910B0120910C0140911E
:1016D0000D016091070170910801809109019091BD
:1016E0000A010E94460B0AC0823209F039C0828189
:1016F00080930E0180910E010E942C0380910701BE
:1017000090910801A0910901B0910A01803B944099
:10171000A105B105C1F480910E0180FD14C087E7D9
:1017200097E790930108809300082BE088E190E010
:101730000FB6F894A895809360000FBE20936000C8
:101740000FC080E00EC088E10FB6F894809360006F
:10175000109260000FBEA895109201081092000828
:1017600081E00F9108952FEF3FEFFC01358724872B
:101770000895CF93C0910E016AE070E080E090E0A0
:101780000E94410A81E0C11101C080E0CF9108951B
:101790001092E5051092E40588EE93E0A0E0B0E039
:1017A0008093E6059093E705A093E805B093E905DB
:1017B00085E191E09093E3058093E2058FEF9FEF41
:1017C0009093EF058093EE05089540913606509171
:1017D0003706209134063091350642175307B4F48A
:1017E0009091E8009570E1F39091E80092FD19C0A6
:1017F0008093F100809136069091370601968F73A1
:101800009927892B19F48EEF8093E8008091360692
:10181000909137060196909337068093360681E0C3
:10182000089580E00895CF92DF92FF920F931F9367
:10183000CF93DF931F92CDB7DEB7082F162F862FD9
:10184000880F8E5F99830E94E50B83E00E94E50B71
:10185000F02EC02E9981D92E8C2D8F19811778F4F6
:10186000F60184910E94E50B082F80E00E94E50BB1
:101870008023FFEFCF1ADF0A8111EECF01C081E094
:101880000F90DF91CF911F910F91FF90DF90CF903C
:101890000895615030F02091F100FC012083019601
:1018A000F8CF84E68093390608952FB7FC01208392
:1018B000F89467706093E9000895CF93DF931F92C7
:1018C000CDB7DEB7682FCE0101960E94550C8091EE
:1018D000F20099819FBF0F90DF91CF910895FF9201
:1018E0000F931F93CF93DF9300D0CDB7DEB7F62EC3
:1018F0008A0190913806992311F057FF03C08FEFAA
:101900009FEF2AC0682FCE0101967A830E94550C62
:101910008091F20090E0A8017A81801791070CF481
:10192000AC01EF2DF72FF40E84E6FE1631F0809314
:1019300039069091F1009193F8CF4115510521F0AE
:101940008091F200882321F089818FBFCA0104C0F1
:101950008BE68093E800F8CF0F900F90DF91CF9146
:101960001F910F91FF900895CF93DF931F92CDB7F2
:10197000DEB741E050E0BE016F5F7F4F0E946F0C09
:10198000019719F4898190E002C08FEF9FEF0F90CB
:10199000DF91CF910895CF93DF931F92CDB7DEB73C
:1019A000682FCE0101960E94550C9091E800892F76
:1019B000807295FF04C09091F20080E4891B9981A8
:1019C0009FBF0F90DF91CF9108956F927F928F927A
:1019D0009F92AF92BF92CF92DF92EF92FF920F93BE
:1019E0001F93CF93DF931F92CDB7DEB7782E7B0185
:1019F000C42EB52E80913806882369F0042F152F48
:101A00008AEFD82E872D8072982E9AE3A92E872DE3
:101A10008074882E11C08FEF9FEF56C0872D0E94D3
:101A2000CB0C682E81110CC0DA94A9F361E070E050
:101A300080E090E00E94410A0115110579F73BC052
:101A4000282F30E0021713070CF4602E672DCE010B
:101A500001960E94550C8091E80085FF29C0262D33
:101A600030E0021B130B992039F06A948FEF68164F
:101A7000B1F01092F100F9CFF701862D77FE07C083
:101A8000815058F094919093F1003196F9CF8150A4
:101A900020F091919093F100FACFE20EF31E809125
:101AA000E80085FF0EC00115110511F4811009C071
:101AB00089818FBFC1CF84E680933A068C2D9B2D00
:101AC00003C0A092E800F4CF0F90DF91CF911F9157
:101AD0000F91FF90EF90DF90CF90BF90AF909F90CD
:101AE0008F907F906F9008951092E90010923706C2
:101AF0001092360690933506809334060895CF925F
:101B0000DF92FF920F931F93CF93DF9300D0CDB757
:101B1000DEB7F82E8A016B0101151105B1F0F6014F
:101B2000F7FE02C0849101C0808149835A830E94DC
:101B3000E50B01501109FFEFCF1ADF0A49815A81E5
:101B40008111EACF8FEF9FEF01C0CA010F900F9074
:101B5000DF91CF911F910F91FF90DF90CF9008956B
:101B60001F93CF93DF931F92CDB7DEB7162F20912F
:101B7000E80022FFFCCF612F79830E94490C8BEF94
:101B80008093E800812F7981972F0F90DF91CF917B
:101B90001F910895CF93DF931F92CDB7DEB71982BF
:101BA000CE0101960E943B0BCE0101960E949A0F36
:101BB000898190E00F90DF91CF9108951F920F924D
:101BC0000FB60F921124EF92FF920F931F932F9352
:101BD0003F934F935F936F937F938F939F93AF93B5
:101BE000BF93EF93FF93CF93DF93CDB7DEB76297A9
:101BF000DEBFCDBF1092E9008091E80083FFEBC00B
:101C000068E0CE010A960E94490C82EF8093E800BA
:101C10009A8597FF05C08091E80080FFFCCF03C044
:101C20008EEF8093E800892F807609F0B9C08B850C
:101C3000811105C01092F1001092F100C5C0282F4B
:101C40002D7F213009F4C0C0853049F48091E8002F
:101C500080FFFCCF8C8580688093E300B5C0863020
:101C600009F076C02D85E888F988223071F580E08A
:101C700090E02A8B0E94740D0E94CA0D99E08E019B
:101C80000F5F1F4FF801392F11923A95E9F79983A9
:101C90002A892A8391E09E8390E898879AEF998712
:101CA0002091360630913706275F3F4F3C832B83C8
:101CB0008D83C7010E94740D49E050E0B80180E0B7
:101CC0000E947F0D0E94CA0D7FC0C7012A8B0E940F
:101CD000740D2A89223241F482E290E00E94A50F1D
:101CE000892B09F071C074C0213069F48889998901
:101CF000089711F42093330680913306811118C0A0
:101D000069EA71E01AC0233009F062C08C8588232B
:101D100091F0823021F467E08AEC91E006C08130D6
:101D200009F056C06EE08BEB91E00E94130C4AC0A4
:101D300067E971E002C062ED71E06115710509F4B7
:101D400047C0FB01449150E080E80E947F0D3CC0F9
:101D5000873009F43DC0883021F481E08093F100A0
:101D600033C0893089F5937099F5E3E9F1E081E0BA
:101D700021E096E38093E9002093EB0034913093C7
:101D8000EC009093ED008F5F3196853099F78EE7E8
:101D90008093EA001092EA008C858093380614C084
:101DA000888999890E94740D8E85811105C0CE01A4
:101DB0000A960E94470B06C0823051F4CE010A9663
:101DC0000E94CD0F882321F08EEF8093E80003C09E
:101DD00081E28093EB0062960FB6F894DEBF0FBEEF
:101DE000CDBFDF91CF91FF91EF91BF91AF919F91C7
:101DF0008F917F916F915F914F913F912F911F91A3
:101E00000F91FF90EF900F900FBE0F901F901895BD
:101E10008093E9008091F200882319F08AE380938F
:101E2000E80008951F920F920FB60F9211242F937E
:101E30003F934F935F936F937F938F939F93AF9352
:101E4000BF93EF93FF938091E1001092E10083FF35
:101E50000FC01092E90091E09093EB001092EC001B
:101E600092E39093ED001092380698E09093F00082
:101E700082FF15C083E00E94080F80913A068823F4
:101E800029F080913A06815080933A068091390674
:101E9000882329F080913906815080933906FF917B
:101EA000EF91BF91AF919F918F917F916F915F91D2
:101EB0004F913F912F910F900FBE0F901F9018954B
:101EC0001092380681E08093D70080EA8093D80092
:101ED00082E089BD09B400FEFDCF61E070E080E0E2
:101EE00090E00E94410A80E98093D8008CE08093C2
:101EF000E2001092E0000895FF920F931F93CF939A
:101F0000DF93EC01F62EE881F9810480F581E02D64
:101F100009958C01E881F9810680F781E02D6F2D0C
:101F2000CE010995C8019927DF91CF911F910F919B
:101F3000FF900895FC0120812F5F208349E150E04C
:101F400066E572E080E80C947F0D45E650E06FE6B0
:101F500072E080E80C947F0DEF92FF920F931F9335
:101F6000CF93DF931F92CDB7DEB789838B017A01C0
:101F700041E050E0BE016F5F7F4F84E00E94E50CBE
:101F8000A701B80184E40E94E50C0F90DF91CF9186
:101F90001F910F91FF90EF900895FC019181808136
:101FA000813A31F481E0913091F0933089F411C09D
:101FB000813271F49B3021F482818093100105C03D
:101FC0009A3031F4828180930F0181E00895089561
:101FD00080E0089548E050E082E00C94AC0FCF938D
:101FE000DF93DC01683818F0E8E7E60F25C0E62F3C
:101FF000F0E067FF11C0E058F10981E090E001C016
:10200000880FEA95EAF714969C911497982B1496EA
:102010009C931497E0E010C0EA52FE4FE491EE2347
:1020200009F440C0E7FF08C014968C9114978260B1
:1020300014968C931497EF7716968C9116978E17AB
:1020400041F117968C9117978E1719F118968C916C
:1020500018978E17F1F019968C9119978E17C9F071
:102060001A968C911A978E17A1F01B968C911B973C
:102070008E1779F080E090E0ED01C80FD91F2E8116
:10208000211102C0EE8305C0019686309105A1F7AB
:1020900009C0BD016C5F7F4FCD010E94EA0F81E056
:1020A00090E008C081E090E013969C938E93129785
:1020B00080E090E0DF91CF910895683818F0E8E76C
:1020C000E60F25C0E62FF0E067FF12C0E058F109E7
:1020D00021E030E001C0220FEA95EAF72095DC010B
:1020E00014963C911497322314963C93E0E00FC071
:1020F000EA52FE4FE491EE2329F1E7FF08C0DC012C
:1021000014962C9114972D7F14962C93EF7720E042
:1021100030E0EE2351F0DC01A20FB31F16964C9174
:1021200016974E1302C016961C922F5F3F4F263013
:10213000310579F7BC016C5F7F4F0E94EA0F81E0A7
:1021400090E0089580E090E00895FC0116821782E7
:1021500010861186128613861482BC016C5F7F4F35
:102160000C94EA0F1092470610923E0610923D061C
:1021700085E291E090933C0680933B060895CF92D0
:10218000DF92EF92FF920F931F93CF93DF936C0137
:102190007A01EB01E60EF71E00E010E0CE15DF0538
:1021A00061F06991D601ED91FC910190F081E02DF3
:1021B000C6010995080F191FF1CFC801DF91CF9112
:1021C0001F910F91FF90EF90DF90CF9008950895A9
:1021D000EE0FFF1F0590F491E02D0994F894FFCFC6
:1021E0000501010F0F030000E100000000000001E5
:1021F0000100000000DE0A250B080B180BF40A058D
:102200000B000000007C0FBF10EF0F5D10A5100049
:00000001FF
